:100000000C9434000C9451000C9451000C94510049
:100010000C9451000C9451000C9451000C9451001C
:100020000C9451000C9451000C9451000C9451000C
:100030000C9451000C9451000C9451000C945100FC
:100040000C9451000C9451000C9476060C945100C1
:100050000C9451000C9451000C9451000C945100DC
:100060000C9451000C94510011241FBECFEFD4E02A
:10007000DEBFCDBF11E0A0E0B1E0E0E6F1E102C0FB
:1000800005900D92A830B107D9F711E0A8E0B1E0D2
:1000900001C01D92A33EB107E1F70E9478070C94BE
:1000A000AE080C9400000E9454068A3A09F44AC033
:1000B00020910B01213039F0213020F02230F9F06D
:1000C00010920B010895809361012CE031E0309390
:1000D000020120930101883F71F1893F20F5863F9D
:1000E00009F458C0873F08F043C0853F21F1909143
:1000F0000801891709F441C010920B010895E0919D
:100100000101F09102018193F0930201E09301015A
:10011000EC50F1408091600190E0E817F907B1F0F0
:1001200020930B0108958C3F79F18D3FA0F08D3F16
:1001300011F08E3FE1F61092600110920B010E94C7
:10014000DD01089581E080930B01089510920B0169
:100150000E94DD0108958B3F51F68091080188309F
:1001600058F283E08093600182E080930B01089550
:1001700080910801883008F0BFCF8CE08093600147
:1001800082E080930B01089580910801883008F087
:10019000B3CFE7CF80910801883008F4ADCFEDCF21
:1001A00087B1807F87B988B18F6088B988EE93E086
:1001B00024EF31E0F9013197F1F70197D9F786B1D2
:1001C00080958F708093080108951F9311E088E156
:1001D00091E0612F40E058E00E94F4041F5F1D3061
:1001E000B1F711E080E391E0612F40E857E00E9411
:1001F000F4041F5F1D30B1F711E088E491E0612F36
:1002000040E058E00E94F4041F5F1D30B1F71F91D9
:100210000895FF920F931F93CF93DF9300E010E0B8
:10022000E801C85EDE4FFF24CE016F2D40E050E0B4
:100230000E94F404F39480E1F816B1F7085E1F4FB2
:100240000834110569F7DF91CF911F910F91FF904D
:1002500008951F93CF93DF9380910C010E94240691
:10026000EC0111E088E191E0612FAE010E94F404FD
:100270001F5F1D30B9F780910D010E942406EC012B
:1002800011E080E391E0612FAE010E94F4041F5F52
:100290001D30B9F780910E010E942406EC0111E097
:1002A00088E491E0612FAE010E94F4041F5F1D30CD
:1002B000B9F7DF91CF911F9108951F93CF93DF93EB
:1002C00080910C010E942406EC01809161018A3F1B
:1002D000A1F0893F21F0DF91CF911F91089511E0A6
:1002E00088E191E0612FAE010E94F4041F5F1F308E
:1002F000B9F7DF91CF911F91089511E080E391E06C
:10030000612FAE010E94F4041F5F1830B9F7DF912E
:10031000CF911F9108950E9409010E9465050895DB
:10032000AF92BF92CF92DF92EF92FF920F931F9303
:10033000CF93DF93CEE0D1E010E0FE0132978081D1
:100340000E9424065C01FE01319780810E942406F0
:100350007C0188810E9424066C0101E0612F600FFE
:1003600088E191E0A5010E94F4040F5F0430B1F729
:1003700001E0612F600F80E391E0A7010E94F40487
:100380000F5F0430B1F701E0612F600F88E491E066
:10039000A6010E94F4040F5F0430B1F723961D5F9D
:1003A0001C3059F6DF91CF911F910F91FF90EF9084
:1003B000DF90CF90BF90AF90089580916101893F09
:1003C00059F18A3F68F08C3FE1F08D3FB0F08D3FEE
:1003D00041F18E3FF1F00E9490010E946505089561
:1003E000863FC9F3873F90F0873FA9F3883F99F78D
:1003F0000E948B010E94650508958A3F69F08B3F3A
:1004000051F70E9429010E9465050895853F19F75B
:10041000EFCF0E94E500E1CF0E945D010E946505DB
:1004200008950E940901D9CF85E085BD16BC0895C5
:10043000CF92DF92EF92FF920F931F93CF93DF93B0
:1004400001E088E191E0602F40E050E00E94F40478
:100450000F5F0031B1F701E080E391E0602F40E0F1
:1004600050E00E94F4040F5F0031B1F701E088E42E
:1004700091E0602F40E050E00E94F4040F5F0031F3
:10048000B1F780910801982F91708770C92FD0E043
:10049000843008F0B5C08E01000F111F0C0F1D1F16
:1004A000000F111F000F111F000F111F085E1E4FBC
:1004B000C80161E040E058E00E94F404C80162E035
:1004C00040E058E00E94F404C80163E040E058E0D6
:1004D0000E94F404CE010196EC01CC0FDD1FC80F81
:1004E000D91FCC0FDD1FCC0FDD1FCC0FDD1FC85E69
:1004F000DE4FCE0161E040E051E00E94F404CE0105
:1005000062E040E051E00E94F404CE0163E040E08C
:1005100051E00E94F404C80164E040E056E00E940B
:10052000F404C80165E040E056E00E94F404C8010C
:1005300066E040E056E00E94F404CE0164E040E052
:1005400052E00E94F404CE0165E040E052E00E94D7
:10055000F404CE0166E040E052E00E94F404C801D9
:1005600067E040E054E00E94F404C80168E040E025
:1005700054E00E94F404C80169E040E054E00E94A5
:10058000F404CE0167E040E053E00E94F404CE01A1
:1005900068E040E053E00E94F404CE0169E040E0EE
:1005A00053E00E94F404C8016AE040E053E00E9476
:1005B000F404C8016BE040E053E00E94F404C80179
:1005C0006CE040E053E00E94F404CE016AE040E0B9
:1005D00053E00E94F404CE016BE040E053E00E943F
:1005E000F404CE016CE040E053E00E94F404DF919B
:1005F000CF911F910F91FF90EF90DF90CF900895D2
:100600007E01EE0CFF1CEC0EFD1EEE0CFF1CEE0C32
:10061000FF1CEE0CFF1C88E191E0E80EF91EC701FB
:1006200061E040E053E00E94F404C70162E040E072
:1006300053E00E94F404C70163E040E053E00E94ED
:10064000F40421968E01000F111F0C0F1D1F000FC7
:10065000111F000F111F000F111F085E1E4FC80150
:1006600061E040E053E00E94F404C80162E040E031
:1006700053E00E94F404C80163E040E053E00E94AC
:10068000F404E4E0DE2EC7016D2D40E054E00E944A
:10069000F404D39497E0D916B1F724E0D22EC80120
:1006A0006D2D40E053E00E94F404D39487E0D81607
:1006B000B1F797E0C92EC7016C2D40E056E00E94CB
:1006C000F404C3949AE0C916B1F7C8016D2D40E057
:1006D00052E00E94F404D3948AE0D816B1F78AE07D
:1006E000C82EC7016C2D40E058E00E94F404C3946A
:1006F0009DE0C916B1F7C8016D2D40E051E00E94A0
:10070000F404D3948DE0D816B1F771CFEF92FF9235
:100710000F931F93CF93DF9380910801877091E02F
:10072000843008F090E080910001873208F090C09A
:10073000992309F490C088E191E061E00E942C05C2
:10074000EC0180E391E061E00E942C057C0111E066
:1007500088E191E064E00E942C05AC0188E191E021
:10076000612F0E94F4041F5F143091F788E191E03B
:1007700067E00E942C05AC0188E191E0612F0E94A6
:10078000F4041F5F173091F788E191E06AE00E945E
:100790002C05AC0188E191E0612F0E94F4041F5FF9
:1007A0001A3091F788E191E06AE0AE010E94F4040A
:1007B00088E191E06BE0AE010E94F40488E191E0F1
:1007C0006CE0AE010E94F40411E080E391E064E08B
:1007D0000E942C05AC0180E391E0612F0E94F4049B
:1007E0001F5F143091F780E391E067E00E942C05D1
:1007F000AC0180E391E0612F0E94F4041F5F173089
:1008000091F780E391E06AE00E942C05AC0180E35F
:1008100091E0612F0E94F4041F5F1A3091F780E38A
:1008200091E06AE0A7010E94F40480E391E06BE0AC
:10083000A7010E94F40480E391E06CE0A7010E940C
:10084000F404DF91CF911F910F91FF90EF900895E5
:10085000992309F470CF88E191E06AE00E942C05A9
:10086000EC0180E391E06AE00E942C057C011AE033
:1008700088E191E067E00E942C05AC0188E191E0FD
:10088000612F0E94F4041F5F1D3091F707E088E19B
:1008900091E064E00E942C05AC0188E191E0602FBA
:1008A0000E94F4040F5F0A3091F714E088E191E0B0
:1008B00061E00E942C05AC0188E191E0612F0E946B
:1008C000F4041F5F173091F788E191E061E0AE0119
:1008D0000E94F40488E191E062E0AE010E94F40419
:1008E00088E191E063E0AE010E94F40480E391E0CE
:1008F00067E00E942C05AC0180E391E0602F0E942C
:10090000F4040F5F0D3091F780E391E064E00E9402
:100910002C05AC0180E391E0612F0E94F4041F5F7D
:100920001A3091F714E080E391E061E00E942C0519
:10093000AC0180E391E0612F0E94F4041F5F173047
:1009400091F780E391E061E0A7010E94F40480E365
:1009500091E062E0A7010E94F40480E391E063E08B
:10096000A7010E94F404DF91CF911F910F91FF9096
:10097000EF900895219A2998229A539A2A9A239AB5
:10098000259A229A2D9880E58CBD8CB582608CBD0D
:1009900080E280938000E1E8F0E080E18083808164
:1009A0008160808381E090E090938900809388004B
:1009B00082E090E090938B0080938A0080E098E43E
:1009C000909387008093860083E28093B000E1EBF0
:1009D000F0E088E0808380818160808389E080937B
:1009E000B3001092B40008959C01DA0170E0CB01CD
:1009F000880F991F860F971F9595879560FD13C0E7
:100A000097E1981B892F90E0FC013197E20FF31FCB
:100A10004081407F5B2F5F70452B4083820F931F87
:100A2000FC01A083089546E1481B50E0F901E40F62
:100A3000F51FCD01929582958F7089279F70892728
:100A40008083FA013196E20FF31F80818F70A295A7
:100A5000A07F8A2B8083089570E09B01220F331FB3
:100A6000260F371F3595279560FD17C037E1321BDC
:100A7000232F30E0F9013197E80FF91F4081280F4B
:100A8000391FF9012081842F90E08F709070982F8A
:100A9000882730E0822B932B0895E6E1E21BF0E0FB
:100AA000DC01AE0FBF1F2C913196E80FF91F80813A
:100AB00082958F7090E030E022953295307F32271A
:100AC000207F3227822B932B0895CF93DF9388E1E9
:100AD00091E067E00E942C05EC0188E191E06DE077
:100AE000AE010E94F40488E191E06EE0AE010E9444
:100AF000F40488E191E06FE0AE010E94F40480E329
:100B000091E06AE00E942C05EC0188E491E06DE040
:100B1000AE010E94F40488E491E06EE0AE010E9410
:100B2000F40488E491E06FE0AE010E94F40488E1EF
:100B300091E067E040E050E00E94F40488E191E039
:100B400068E040E050E00E94F40488E191E069E050
:100B500040E050E00E94F40480E391E06AE040E06D
:100B600050E00E94F40480E391E06BE040E050E04C
:100B70000E94F40480E391E06CE040E050E00E94C9
:100B8000F40462E0462F50E080E090E09A01220FEA
:100B9000331F240F351F220F331F220F331F220F45
:100BA000331FF901E80FF91FE85EFE4F40814EBD8B
:100BB0000DB407FEFDCF01968831910591F7615084
:100BC00008F7299A86E0982F9A95F1F729988A953F
:100BD000F1F7DF91CF910895CF92DF92EF92FF92DC
:100BE0001F93CF93DF936A01162F1F5F70E06F5F33
:100BF0007F4F7B01EE0CFF1CE60EF71E212F30E02D
:100C0000E216F306CCF090E0EC01CC0FDD1FC80F2C
:100C1000D91FCC0FDD1FCC0FDD1FCC0FDD1FC85E31
:100C2000DE4FCE01612FA6010E94F4041F5F812FC9
:100C300090E0E816F906ACF7DF91CF911F91FF9095
:100C4000EF90DF90CF900895282F22952F7030E0FD
:100C500090E082959295907F9827807F9827282B07
:100C6000392BC9010895529A5A981092C50080E410
:100C70008093C40082E08093C00080E98093C1002B
:100C8000E2ECF0E086E0808380818062808383E60E
:100C900091E0909306018093050190930401809365
:100CA000030110920A010895F89480910A018823A3
:100CB000E1F3E0910301F0910401819190910A0127
:100CC000915090930A01F0930401E093030191E0A5
:100CD000E33EF90730F023E631E03093040120933E
:100CE00003017894089580910A0108951F920F924C
:100CF0000FB60F9211242F938F939F93EF93FF932F
:100D00008091C00082FD23C09091C60080910A01AD
:100D1000813838F5E0910501F091060190838091CA
:100D20000A018F5F80930A0180910501909106016D
:100D30000196909306018093050121E0833E92077E
:100D400030F083E691E09093060180930501FF91D6
:100D5000EF919F918F912F910F900FBE0F901F9049
:100D60001895F89410920901F2CF2F923F924F926A
:100D70005F926F927F928F929F92AF92BF92CF922B
:100D8000DF92EF92FF920F931F93DF93CF9300D0E8
:100D90000F92CDB7DEB71A0139012801372F482F3E
:100DA000862F6AE20E947B08292F082F10E0C32EAD
:100DB000DD240630110509F478C0939FC001112489
:100DC00066ED7FEF0E94870861507F4FEAE2F0E016
:100DD000E21BF109E42EFF248FEF90E08C199D09AE
:100DE000E89E9001E99E300DF89E300D1124232FCE
:100DF000330F330B822EE69EC001E79E900DF69EC8
:100E0000900D1124A92EBB24A7FCBA949A2CEC9D1A
:100E1000C001ED9D900DFC9D900D112466ED7FEFBE
:100E20000E94870861507F4FE69EC001E79E900DAB
:100E3000F69E900D1124892F990F990B0230110500
:100E400009F448C00330110518F10330110509F405
:100E500048C004301105B9F1F1014083F3018082EB
:100E6000F20190820F900F900F90CF91DF911F9120
:100E70000F91FF90EF90DF90CF90BF90AF909F9039
:100E80008F907F906F905F904F903F902F9008953C
:100E90000115110589F001301105F1F6F101A0826B
:100EA000F3014083F2012083DDCFEAE2F0E06FEF4F
:100EB00070E000E010E08ECFF1014083F301808309
:100EC000F2012083CFCFF1018083F3012083F2016F
:100ED0004083C8CFF1012083F3014083F201808376
:100EE000C1CFF1012083F301A082F2014083BACF88
:100EF000DF93CF93CDB7DEB72A970FB6F894DEBF56
:100F00000FBECDBF0E94D0000E94BA0478948FEF2C
:100F10008A8380E58B8388E191E061E04FE050E0D7
:100F20000E94F40488E191E062E04FE050E00E940A
:100F3000F40488E191E063E04FE050E00E94F404A3
:100F400014E088E191E0612F40EF50E00E94F4044A
:100F50001F5F1A30B1F788E191E06AE04FE050E09E
:100F60000E94F40488E191E06BE04FE050E00E94C1
:100F7000F40488E191E06CE04FE050E00E94F4045A
:100F80000E94650588EE93E024EF31E0F901319786
:100F9000F1F70197D9F711E088E191E0612F40E086
:100FA00050E00E94F4041F5F1D30B1F711E080E3B0
:100FB00091E0612F40E050E00E94F4041F5F1D307B
:100FC000B1F711E088E491E0612F40E050E00E9429
:100FD000F4041F5F1D30B1F70E9465050E94D00028
:100FE00080E094EFE92E91E0F92E843000F1DD24C9
:100FF000AA24BB248091080190E00A2C02C0959598
:1010000087950A94E2F780FD1DC00894A11CB11CCD
:1010100083E0D80E8CE0D81669F70E94650580ED54
:1010200097E0F7013197F1F70197D9F780E0E7E012
:10103000F0E0EC0FFD1FE80FF11D90819F5F9083A2
:101040008F5FD3CFE7E0F0E0EC0FFD1FEA0DFB1D53
:10105000608169837A818B81AE014C5F5F4F9E0115
:101060002B5F3F4F8E010A5F1F4F0E94B5064C81D8
:1010700088E191E06D2D50E00E94F4041D2D1F5F6A
:101080004C8188E191E0612F50E00E94F4040D2D25
:101090000E5F4C8188E191E0602F50E00E94F404E3
:1010A0004D8180E391E06D2D50E00E94F4044D816C
:1010B00080E391E0612F50E00E94F4044D8180E3D1
:1010C00091E0602F50E00E94F4044E8188E491E0AA
:1010D0006D2D50E00E94F4044E8188E491E0612F70
:1010E00050E00E94F4044E8188E491E0602F50E0CB
:1010F0000E94F4048ACF991B79E004C0991F9617C7
:1011000008F0961B881F7A95C9F78095089597FB7C
:10111000092E07260AD077FD04D00CD006D0002077
:101120001AF4709561957F4F0895F6F79095819523
:101130009F4F0895AA1BBB1B51E107C0AA1FBB1FED
:10114000A617B70710F0A61BB70B881F991F5A9553
:10115000A9F780959095BC01CD010895F894FFCF33
:08116000010C016301630100B1
:00000001FF
