:103800000C94341C0C94511C0C94511C0C94511CA1
:103810000C94511C0C94511C0C94511C0C94511C74
:103820000C94511C0C94511C0C94511C0C94511C64
:103830000C94511C0C94511C0C94511C0C94511C54
:103840000C94511C0C94511C0C94B01E0C94511CE3
:103850000C94511C0C94511C0C94511C0C94511C34
:103860000C94511C0C94511C11241FBECFEFD4E0BA
:10387000DEBFCDBF11E0A0E0B1E0E0EFFEE302C0AB
:1038800005900D92A630B107D9F712E0A6E0B1E09D
:1038900001C01D92AF30B107E1F70E94041F0C94E4
:1038A000761F0C94001C882331F08AE00E942A1EA7
:1038B00010920701FFCF89E00E942A1EF9CF682FDE
:1038C000F999FECF81E090E00E94531F08951F9365
:1038D000182FF999FECF209108013091090183E05A
:1038E00090E0B9010E94611FF999FECF82E090E05B
:1038F000612F0E94531F1F910895CF93DF937FB7CD
:10390000F89407B600FCFDCFF999FECFC0910A01EB
:10391000D0910B0183E0FE0180935700E89507B634
:1039200000FCFDCFAEE0B1E061E0AE01405151409E
:103930008C9190E011963C91119720E0822B932B73
:103940001296B0930D01A0930C0107B600FCFDCFB9
:10395000F999FECFFD01E40FF51F0C0160935700AC
:10396000E8951124F1E0AE38BF0711F707B600FC67
:10397000FDCFF999FECF85E0FE0180935700E895D1
:1039800007B600FCFDCF07B600FCFDCFF999FECFCE
:1039900081E180935700E8957FBFDF91CF91089533
:1039A000089520910E022F3FF9F0809105018F3F7D
:1039B000D9F02817C9F0803FA8F030E090E08F7070
:1039C000907082959295907F9827807F98272817EE
:1039D000390764F0AC01415F5F4F81E04217530744
:1039E0000CF0089580E0089581E0089580E0089546
:1039F0001F930E94921E182F8E34A1F08091070110
:103A0000853009F4ACC0863078F0883009F47BC08A
:103A10008930E0F4863009F470C0873009F45FC063
:103A2000109207011F910895823009F493C08330EA
:103A300028F1833009F442C0843091F710920801D4
:103A40001093090185E080930701ECCF8A3009F4D7
:103A50006AC08A3008F093C0E0910C01F0910D012A
:103A60001193F0930D01E0930C0181E0EE38F8071B
:103A700009F489C089E080930701D4CF882341F1FC
:103A8000813071F61A3A71F21D3409F480C00E9437
:103A9000D11C882329F2153409F488C0163408F0A3
:103AA0007AC0123409F48AC0143409F48BC011347A
:103AB00009F0B6CF83E080930701B4CF812F0E9435
:103AC0005F1C109207010E944E1E80930E02AACF27
:103AD0001A3A09F0A7CF81E080930701A3CF109293
:103AE0000A0110930B018EE091E090930D018093F9
:103AF0000C0188E08093070195CF812F0E94671CFD
:103B0000109207018FCF212F30E080910A01909110
:103B10000B01822B932B90930B0180930A0189E078
:103B2000809307017FCF1092070190E080E0E82F9B
:103B3000F0E0E25FFE4F2081920F8F5F8038B9F78F
:103B40009095911709F054C00E947D1C83E00E945B
:103B50002A1E68CF109305011092070163CF212F11
:103B600030E08091080190910901822B932B909372
:103B700009018093080186E08093070153CF8B30C1
:103B800009F04ECF4FCF8AE0809307014BCF82E000
:103B90008093070147CF123511F11635E1F010354A
:103BA00009F03ECF87E0809307013CCF80910E0261
:103BB0008F700E942A1E1092070134CF84E08093F8
:103BC000070130CF80910E0282958F700E942A1ECD
:103BD0001092070127CF8BE08093070123CFF89441
:103BE00081E085BF85B78D7F85BF0C9400001ACF1B
:103BF00081E00E94531C0E94AD1E8823E1F30E94C5
:103C0000F81CF9CF40910E02942F92959F7028B125
:103C1000292B28B988B1906F982398B988E893E147
:103C200024EF31E0F9013197F1F70197D9F7842FAB
:103C30008F7098B1982B98B998B1806F892388B903
:103C400088E893E124EF31E0F9013197F1F701972A
:103C5000D9F708958F7098B1982B98B998B1806F63
:103C6000892388B9089598B121E030E002C0220F7D
:103C7000331F8A95E2F7922B98B9089598B121E005
:103C800030E002C0220F331F8A95E2F720952923E6
:103C900028B9089587B18F6087B90895F999FECF43
:103CA00081E090E00E94451F0895F999FECF83E0DE
:103CB00090E00E944D1F2FEF8F3F920709F008956B
:103CC00080E490E00895F999FECF82E090E00E94B0
:103CD000451F8F3F09F0089581E00895529A5A9840
:103CE0000E94551E9093C5008093C4000E94631EDD
:103CF000880F8093C00080E98093C100E2ECF0E07F
:103D000086E080838081806280838EE891E090935A
:103D100004018093030190930201809301011092AA
:103D200006010895F894E0910101F091020181915A
:103D300090910601915090930601F0930201E09357
:103D4000010192E0EE30F90730F02EE831E03093D7
:103D5000020120930101789408958091060108954D
:103D60001F920F920FB60F9211242F933F934F93F0
:103D70005F936F937F938F939F93AF93BF93EF93D3
:103D8000FF938091C00082FD3BC09091C60080915E
:103D90000601813870F5E0910301F09104019083F0
:103DA000809106018F5F80930601809103019091BD
:103DB00004010196909304018093030122E08E3068
:103DC000920730F08EE891E0909304018093030114
:103DD000FF91EF91BF91AF919F918F917F916F91E3
:103DE0005F914F913F912F910F900FBE0F901F90B9
:103DF0001895F8941092000182E00E94331EE8CFDB
:103E000081E00E94331EE4CF81E085BF82E085BF60
:103E10000E944A1E89E00E942A1E0E944E1E809324
:103E20000E021092C50081E88093C4001092C00079
:103E300080E98093C10086E08093C2008EE891E023
:103E400090930401809303019093020180930101F8
:103E500010920601789484EC99E024EF31E0F901A6
:103E60003197F1F70197D9F70E94AD1E882359F4D5
:103E7000F89481E085BF85B78D7F85BF0C940000E5
:103E800080E090E008950E94FB1DF999FECF92BD5D
:103E900081BDF89A992780B50895A8E1B0E042E085
:103EA00050E00C94681F262FF999FECF1FBA92BDDF
:103EB00081BD20BD0FB6F894FA9AF99A0FBE01960B
:103EC00008950E94531F272F0C94541FDC01CB012F
:103ED000FC01F999FECF06C0F2BDE1BDF89A31961A
:103EE00000B40D9241505040B8F70895F894FFCFB8
:063EF000018E018E01FFAE
:0400000300003800C1
:00000001FF
