:103800000C94341C0C94511C0C94511C0C94511CA1
:103810000C94511C0C94511C0C94511C0C94511C74
:103820000C94511C0C94511C0C94511C0C94511C64
:103830000C94511C0C94511C0C94511C0C94511C54
:103840000C94511C0C94511C0C94D91E0C94511CBA
:103850000C94511C0C94511C0C94511C0C94511C34
:103860000C94511C0C94511C11241FBECFEFD4E0BA
:10387000DEBFCDBF11E0A0E0B1E0E6E4FFE302C0AF
:1038800005900D92A630B107D9F712E0A6E0B1E09D
:1038900001C01D92AF30B107E1F70E942D1F0C94BB
:1038A000A11F0C94001C682FF999FECF81E090E0D5
:1038B0000E947E1F08951F93182FF999FECF209123
:1038C00008013091090183E090E0B9010E948C1F4A
:1038D000F999FECF82E090E0612F0E947E1F1F9138
:1038E0000895CF93DF937FB7F89407B600FCFDCF20
:1038F000F999FECFC0910A01D0910B0183E0FE013E
:1039000080935700E89507B600FCFDCFAEE0B1E02C
:1039100061E0AE01405151408C9190E011963C9194
:10392000119720E0822B932B1296B0930D01A09358
:103930000C0107B600FCFDCFF999FECFFD01E40FA5
:10394000F51F0C0160935700E8951124F1E0AE38A3
:10395000BF0711F707B600FCFDCFF999FECF85E050
:10396000FE0180935700E89507B600FCFDCF7FBFAE
:10397000DF91CF91089520910E022F3FF9F08091B1
:1039800005018F3FD9F02817C9F0803FA8F030E03B
:1039900090E08F70907082959295907F9827807FAD
:1039A00098272817390764F0AC01415F5F4F81E029
:1039B000421753070CF0089580E0089581E00895C0
:1039C00080E008951F930E94BB1E182F8E34A1F033
:1039D00080910701853009F4ADC0863078F08830D9
:1039E00009F493C08930E0F4863009F47EC0873052
:1039F00009F46AC0109207011F910895823009F4FA
:103A000094C0833048F1833009F475C0843091F755
:103A1000109208011093090185E080930701ECCF13
:103A20008930D1F18A3031F71092070190E080E0BF
:103A3000E82FF0E0E25FFE4F2081920F8F5F803829
:103A4000B9F79095911709F489C081E00E94FA1D99
:103A500083E00E945C1ED0CF882379F1813051F63B
:103A60001A3A51F21D3409F47CC00E94BB1C882311
:103A700009F2153409F4A2C0163408F076C01234E5
:103A800009F4ADC0143409F4A1C0113409F0B2CF67
:103A900083E080930701B0CFE0910C01F0910D011C
:103AA0001193F0930D01E0930C0191E0EE38F907CA
:103AB00009F450C0809307019FCF1A3A09F09CCFB8
:103AC00081E08093070198CF812F0E94531E1092AE
:103AD0000A0110930B018EE091E090930D01809309
:103AE0000C0188E08093070187CF812F0E945B1C27
:103AF0001092070181CF812F0E94531C1092070161
:103B00000E94771E80930E0277CF212F30E08091A4
:103B10000A0190910B01822B932B90930B018093C0
:103B20000A0189E08093070167CF10930501109285
:103B3000070162CF212F30E08091080190910901A7
:103B4000822B932B909309018093080186E0809348
:103B5000070152CF8AE0809307014ECF0E94711C6B
:103B600077CF82E08093070147CF103519F11235E6
:103B700079F0163409F03ECF07B600FCFDCFF99975
:103B8000FECF81E180935700E8951092070134CF72
:103B9000F89407B600FCFDCFF999FECF81E1809340
:103BA0005700E89581E085BF15BE0C940000109287
:103BB000070122CF87E0809307011ECF80910E027C
:103BC0008F700E94531E1092070116CF80910E0233
:103BD00082958F700E94531E109207010DCF84E0D2
:103BE0008093070109CF0E94D61E8823E1F30E942B
:103BF000E21CF9CF882341F18AE00E94531EE0E0E5
:103C0000F0E021E08FEF9FEF07B600FCFDCFF999C0
:103C1000FECF0C0120935700E89511243296E0382E
:103C2000F10591F707B600FCFDCF8FB390E0FC01E2
:103C3000E270F07081FDF9CF85E080935700E89540
:103C400007B600FCFDCFFFCF89E00E94531E109203
:103C500007010E94F31D40910E02942F92959F70D0
:103C600028B1292B28B988B1906F982398B988E892
:103C700093E124EF31E0F9013197F1F70197D9F79A
:103C8000842F8F7098B1982B98B998B1806F892341
:103C900088B988E893E124EF31E0F9013197F1F731
:103CA0000197D9F708958F7098B1982B98B998B16A
:103CB000806F892388B9089598B121E030E002C06F
:103CC000220F331F8A95E2F7922B98B9089598B185
:103CD00021E030E002C0220F331F8A95E2F72095E1
:103CE000292328B9089587B18F6087B90895F99974
:103CF000FECF81E090E00E94701F0895F999FECFF9
:103D000083E090E00E94781F2FEF8F3F920709F029
:103D1000089580E490E00895F999FECF82E090E064
:103D20000E94701F8F3F09F0089581E00895529A14
:103D30005A980E947E1E9093C5008093C4000E94F2
:103D40008C1E880F8093C00080E98093C100E2EC54
:103D5000F0E086E080838081806280838EE891E05D
:103D600090930401809303019093020180930101D9
:103D7000109206010895F894E0910101F09102017A
:103D8000819190910601915090930601F093020168
:103D9000E093010192E0EE30F90730F02EE831E0D7
:103DA00030930201209301017894089580910601D7
:103DB00008951F920F920FB60F9211242F933F93E5
:103DC0004F935F936F937F938F939F93AF93BF9323
:103DD000EF93FF938091C00082FD3BC09091C6009D
:103DE00080910601813870F5E0910301F0910401A2
:103DF0009083809106018F5F80930601809103017B
:103E0000909104010196909304018093030122E0B4
:103E10008E30920730F08EE891E090930401809309
:103E20000301FF91EF91BF91AF919F918F917F918E
:103E30006F915F914F913F912F910F900FBE0F9017
:103E40001F901895F8941092000182E00E945C1E69
:103E5000E8CF81E00E945C1EE4CF81E085BF82E074
:103E600085BF0E94731E89E00E94531E0E94771E28
:103E700080930E021092C50081E88093C4001092D6
:103E8000C00080E98093C10086E08093C2008EE884
:103E900091E0909304018093030190930201809339
:103EA000010110920601789488E893E124EF31E053
:103EB000F9013197F1F70197D9F70E94D61E8823AF
:103EC00049F4F89481E085BF15BE0C94000080E0B1
:103ED00090E008950E94BB1E8E3499F70E94F31D56
:103EE000F999FECF92BD81BDF89A992780B50895C2
:103EF000A8E1B0E042E050E00C94931F262FF9991E
:103F0000FECF1FBA92BD81BD20BD0FB6F894FA9ABC
:103F1000F99A0FBE019608950E947E1F272F0C94D8
:103F20007F1FDC01CB01FC01F999FECF06C0F2BD79
:103F3000E1BDF89A319600B40D9241505040B8F767
:063F40000895F894FFCF84
:063F4600018E018E01FF57
:0400000300003800C1
:00000001FF
