:020000040000FA
:200000000C946D000C948A000C948A000C948A000C948A000C948A000C948A000C948A00AD
:200020000C948A000C948A000C948A000C948A000C948A000C948A000C948A000C948A0070
:200040000C948A000C948A000C94AB010C948A000C948A000C948A000C948A000C948A002E
:200060000C948A000C948A00B400BD009500950095009500950095009500950095009500E9
:20008000950095009500C500C900CD00D500DC00E800EE009500F300A200950095009500D6
:2000A0009500950095009500B400BD009500950095009500950095009500950095009500A9
:2000C000950095009500C500C900CD00D500DC00E800EE009500F300A20011241FBECFEF85
:2000E000D4E0DEBFCDBF11E0A0E0B1E0EEEBF4E002C005900D92A630B107D9F711E0A6E0A9
:20010000B1E001C01D92A23EB107E1F70E94FF010C945D020C9400000E948D01482F50E056
:20012000415450404933510520F083E00E94250108954C5C5F4FFA01EE0FFF1F0590F4916A
:20014000E02D09940E942501F999FECF82E090E061E00E943A02F999FECF83E090E065EA5C
:2001600079E60E94480208950E9449018093060182958F700E94250108950E944901809317
:2001800006018F700E942501089586E00E94250108958AE00E94250108950E945001892FAF
:2001A00082958F700E94250108950E945001892F8F700E94250108950E9450019295829584
:2001C0008F7089279F7089278F700E94250108950E9450018F700E94250108950E945E01F5
:2001E0000E94250108950E942501F999FECF81E090E065E00E943A02089540910601942F47
:2002000092959F7028B1292B28B988B1906F982398B988E893E124EF31E0F9013197F1F7A4
:200220000197D9F7842F8F7098B1982B98B998B1806F892388B988E893E124EF31E0F90120
:200240003197F1F70197D9F708958F7098B1982B98B998B1806F892388B9089598B121E081
:2002600030E002C0220F331F8A95E2F7922B98B9089598B121E030E002C0220F331F8A95C8
:20028000E2F72095292328B9089587B18F6087B90895F999FECF81E090E00E942C02089565
:2002A000F999FECF83E090E00E9434022FEF8F3F920709F0089580E490E00895F999FECF49
:2002C00082E090E00E942C028F3F09F0089581E00895529A5A980E9450019093C50080934E
:2002E000C4000E945E01880F8093C00080E98093C100E2ECF0E086E08083808180628083A5
:2003000082E691E090930501809304019093030180930201109208010895F894E09102013E
:20032000F0910301819190910801915090930801F0930301E093020191E0E23EF90730F041
:2003400022E631E03093030120930201789408958091080108951F920F920FB60F921124BA
:200360002F933F934F935F936F937F938F939F93AF93BF93EF93FF938091C00082FD3BC0BA
:200380009091C60080910801813870F5E0910401F09105019083809108018F5F809308010A
:2003A00080910401909105010196909305018093040121E0823E920730F082E691E09093B2
:2003C000050180930401FF91EF91BF91AF919F918F917F916F915F914F913F912F910F9000
:2003E0000FBE0F901F901895F8941092070182E00E942E01E8CF81E00E942E01E4CF0E948E
:2004000045010E944901809306011092C50081E88093C4001092C00080E98093C10086E0E4
:200420008093C20082E691E0909305018093040190930301809302011092080186E00E94DD
:200440002501789481E0809307010E94A8018823E1F30E948C00F9CFF999FECF92BD81BD42
:20046000F89A992780B50895A8E1B0E042E050E00C944F02262FF999FECF1FBA92BD81BDE2
:2004800020BD0FB6F894FA9AF99A0FBE019608950E943A02272F0C943B02DC01CB01FC014F
:2004A000F999FECF06C0F2BDE1BDF89A319600B40D9241505040B8F70895F894FFCF09014D
:0404C0006201620172
:203800000C94341C0C94511C0C94511C0C94511C0C94511C0C94511C0C94511C0C94511C5D
:203820000C94511C0C94511C0C94511C0C94511C0C94511C0C94511C0C94511C0C94511C20
:203840000C94511C0C94511C0C94821E0C94511C0C94511C0C94511C0C94511C0C94511CCD
:203860000C94511C0C94511C11241FBECFEFD4E0DEBFCDBF11E0A0E0B1E0E6E7FEE302C00F
:2038800005900D92A630B107D9F712E0A6E0B1E001C01D92AE30B107E1F70E94D61E0C9479
:2038A000391F0C94001C682FF999FECF81E090E00E94161F08951F93182FF999FECF2091B0
:2038C00008013091090183E090E0B9010E94241FF999FECF82E090E0612F0E94161F1F915A
:2038E0000895CF93DF937FB7F89407B600FCFDCFF999FECF80910A01C82FD0E083E0FE018C
:2039000080935700E89507B600FCFDCFADE0B1E061E0AE014F5051408C9190E011963C91FC
:20392000119720E0822B932B1296B0930C01A0930B0107B600FCFDCFF999FECFFD01E40F68
:20394000F51F0C0160935700E8951124F1E0AD38BF0711F707B600FCFDCFF999FECF85E07D
:20396000FE0180935700E89507B600FCFDCF07B600FCFDCFF999FECF81E180935700E895AF
:203980007FBFDF91CF910895089520910D022F3FF9F0809105018F3FD9F02817C9F0803F63
:2039A000A8F030E090E08F70907082959295907F9827807F98272817390764F0AC01415F06
:2039C0005F4F81E0421753070CF0089580E0089581E0089580E008951F930E94641E182F77
:2039E0008E34A1F080910701853009F45AC0863078F0883009F47CC08930D8F4863009F448
:203A000071C0873009F45DC0109207011F910895823009F441C0833090F0833061F1843011
:203A200099F7109208011093090185E080930701EDCF893009F461C08A3031F7E7CF882348
:203A400021F1813009F71A3A09F31D3409F46CC00E94C51C8823C1F2143409F480C015342A
:203A600008F06AC0113409F476C0123469F684E080930701CBCF812F0E94531C1092070183
:203A80000E94201E80930D02C1CF1A3A09F0BECF81E080930701BACF109305011092070162
:203AA000B5CF212F30E08091080190910901822B932B909309018093080186E080930701A8
:203AC000A5CF10930A01EDE0F1E01193F0930C01E0930B0181E0ED38F80751F188E0809331
:203AE000070194CF812F0E945B1C109207018ECFE0910B01F0910C01E8CF1092070190E0AF
:203B000080E0E82FF0E0E35FFE4F2081920F8F5F8038B9F79095911721F081E00E94C71D72
:203B200075CF0E94711C72CF82E0809307016ECF89E0809307016ACF1035F1F01635C1F038
:203B4000153409F061CF80910D028F700E94FC1D109207015BCF83E08093070157CF809190
:203B60000D0282958F700E94FC1D109207014ECF8AE0809307014ACF87E08093070146CF69
:203B80000E947F1E8823E1F30E94EC1CF9CF882339F08AE00E94FC1D109207010E94C01DD3
:203BA00089E00E94FC1DF8CF40910D02942F92959F7028B1292B28B988B1906F982398B9EF
:203BC00088E893E124EF31E0F9013197F1F70197D9F7842F8F7098B1982B98B998B1806F84
:203BE000892388B988E893E124EF31E0F9013197F1F70197D9F708958F7098B1982B98B9C5
:203C000098B1806F892388B9089598B121E030E002C0220F331F8A95E2F7922B98B90895A0
:203C200098B121E030E002C0220F331F8A95E2F72095292328B9089587B18F6087B908956A
:203C4000F999FECF81E090E00E94081F0895F999FECF83E090E00E94101F2FEF8F3F920746
:203C600009F0089580E490E00895F999FECF82E090E00E94081F8F3F09F0089581E00895E1
:203C8000529A5A980E94271E9093C5008093C4000E94351E880F8093C00080E98093C10004
:203CA000E2ECF0E086E080838081806280838DE891E09093040180930301909302018093B9
:203CC0000101109206010895F894E0910101F0910201819190910601915090930601F09351
:203CE0000201E093010192E0ED30F90730F02DE831E0309302012093010178940895809142
:203D0000060108951F920F920FB60F9211242F933F934F935F936F937F938F939F93AF9300
:203D2000BF93EF93FF938091C00082FD3BC09091C60080910601813870F5E0910301F091BF
:203D400004019083809106018F5F809306018091030190910401019690930401809303011A
:203D600022E08D30920730F08DE891E09093040180930301FF91EF91BF91AF919F918F91B6
:203D80007F916F915F914F913F912F910F900FBE0F901F901895F8941092000182E00E9419
:203DA000051EE8CF81E00E94051EE4CF81E085BF82E085BF0E941C1E89E00E94FC1D0E9463
:203DC000201E80930D021092C50081E88093C4001092C00080E98093C10086E08093C20002
:203DE0008DE891E09093040180930301909302018093010110920601789484EC99E024EFB2
:203E000031E0F9013197F1F70197D9F70E94C01DF999FECF92BD81BDF89A992780B50895F0
:203E2000A8E1B0E042E050E00C942B1F262FF999FECF1FBA92BD81BD20BD0FB6F894FA9A51
:203E4000F99A0FBE019608950E94161F272F0C94171FDC01CB01FC01F999FECF06C0F2BD51
:1C3E6000E1BDF89A319600B40D9241505040B8F70895F894FFCF018D018D01FF19
:0400000500003800BF
:00000001FF
