:100000000C946D000C948A000C948A000C948A0065
:100010000C948A000C948A000C948A000C948A0038
:100020000C948A000C948A000C948A000C948A0028
:100030000C948A000C948A000C948A000C948A0018
:100040000C948A000C948A000C94AB010C948A00E6
:100050000C948A000C948A000C948A000C948A00F8
:100060000C948A000C948A00B400BD0095009500A1
:1000700095009500950095009500950095009500D8
:10008000950095009500C500C900CD00D500DC00A5
:10009000E800EE009500F300A200950095009500A1
:1000A0009500950095009500B400BD009500950061
:1000B0009500950095009500950095009500950098
:1000C000950095009500C500C900CD00D500DC0065
:1000D000E800EE009500F300A20011241FBECFEF50
:1000E000D4E0DEBFCDBF11E0A0E0B1E0EEEBF4E084
:1000F00002C005900D92A630B107D9F711E0A6E035
:10010000B1E001C01D92A23EB107E1F70E94FF01DC
:100110000C945D020C9400000E948D01482F50E069
:10012000415450404933510520F083E00E9425019D
:1001300008954C5C5F4FFA01EE0FFF1F0590F4919C
:10014000E02D09940E942501F999FECF82E090E00C
:1001500061E00E943A02F999FECF83E090E065EAFF
:1001600079E60E94480208950E94490180930601A1
:1001700082958F700E94250108950E944901809305
:1001800006018F700E942501089586E00E942501D6
:1001900008958AE00E94250108950E945001892F48
:1001A00082958F700E94250108950E945001892F29
:1001B0008F700E94250108950E94500192958295AA
:1001C0008F7089279F7089278F700E94250108955D
:1001D0000E9450018F700E94250108950E945E01C7
:1001E0000E94250108950E942501F999FECF81E022
:1001F00090E065E00E943A02089540910601942F34
:1002000092959F7028B1292B28B988B1906F9823B7
:1002100098B988E893E124EF31E0F9013197F1F7DB
:100220000197D9F7842F8F7098B1982B98B998B10E
:10023000806F892388B988E893E124EF31E0F901E0
:100240003197F1F70197D9F708958F7098B1982BEE
:1002500098B998B1806F892388B9089598B121E041
:1002600030E002C0220F331F8A95E2F7922B98B933
:10027000089598B121E030E002C0220F331F8A9523
:10028000E2F72095292328B9089587B18F6087B9AF
:100290000895F999FECF81E090E00E942C02089524
:1002A000F999FECF83E090E00E9434022FEF8F3F58
:1002B000920709F0089580E490E00895F999FECF3F
:1002C00082E090E00E942C028F3F09F0089581E0C7
:1002D0000895529A5A980E9450019093C5008093B5
:1002E000C4000E945E01880F8093C00080E9809363
:1002F000C100E2ECF0E086E0808380818062808350
:1003000082E691E0909305018093040190930301AC
:1003100080930201109208010895F894E09102017F
:10032000F0910301819190910801915090930801FF
:10033000F0930301E093020191E0E23EF90730F00F
:1003400022E631E03093030120930201789408956E
:100350008091080108951F920F920FB60F921124F9
:100360002F933F934F935F936F937F938F939F93BD
:10037000AF93BF93EF93FF938091C00082FD3BC08A
:100380009091C60080910801813870F5E0910401D8
:10039000F09105019083809108018F5F809308019F
:1003A000809104019091050101969093050180933D
:1003B000040121E0823E920730F082E691E09093C2
:1003C000050180930401FF91EF91BF91AF919F913F
:1003D0008F917F916F915F914F913F912F910F90EE
:1003E0000FBE0F901F901895F8941092070182E0AD
:1003F0000E942E01E8CF81E00E942E01E4CF0E94EE
:1004000045010E944901809306011092C50081E8D0
:100410008093C4001092C00080E98093C10086E000
:100420008093C20082E691E09093050180930401DD
:1004300090930301809302011092080187E00E94CB
:100440002501789481E0809307010E94A801882308
:10045000E1F30E948C00F9CFF999FECF92BD81BDE6
:10046000F89A992780B50895A8E1B0E042E050E0FD
:100470000C944F02262FF999FECF1FBA92BD81BD71
:1004800020BD0FB6F894FA9AF99A0FBE0196089516
:100490000E943A02272F0C943B02DC01CB01FC01A5
:1004A000F999FECF06C0F2BDE1BDF89A319600B4CD
:0E04B0000D9241505040B8F70895F894FFCFD8
:0604BE0009016201620168
:00000001FF
